:1000000000000000000000000000000000000000F0
:1000100000000000000000000000000000000000E0
:1000200000000000000000000000000000000000D0
:1000300000000000000000000000000000000000C0
:1010400000000000000000000000000EEEEEEE00C8
:1010500000EEEEEE00EEEE000EE000EEEEEE000032
:10106000000000EEEEEE0000EEEEEE00000000EEFE
:10107000E000EEE0EEEEEEEE0EEEEEEEE000000052
:1010800000000EE000000000000000000000000072
:1010900000000000000000000000000EEEEEEEE098
:1010A0000EEEEEEEE0EEEE000EE00EEEEEEEE00006
:1010B00000000EEEEEEEE00EEEEEEEE0000000EED2
:1010C000E000EEE0EEEEEEEE0EEEEEEEEE000000F4
:1010D00000000EE000000000000000000000000022
:1010E00000000000000000000000000EEE00EEE036
:1010F0000EEE00EEE00EEEE0EEE00EEE00EEE000B2
:1011000000000EEE00EEE00EEE00EEE0000000EE5D
:10111000E000EEE0EEE000000EEE000EEE0000005B
:1011200000000EE0000000000000000000000000D1
:1011300000000000000000000000000EEE000EE0C5
:101140000EE0000EE00EEEE00EE00EE0000000000B
:1011500000000EE00000000EE0000000000000EEC5
:10116000E000EEE0EEE000000EEE000EEE00EEEE2F
:10117000EE000EE000000000000000000000000093
:1011800000000000000000000000000EE000EEE0A3
:101190000EEE00EEE00EEEEEEEE00EEE00000000D1
:1011A00000000EEE000000EEE0000000000000EE87
:1011B000E000EEE0EEEEEE000EEE000EEE0EEEEED5
:1011C000EEE00EE000000000000000000000000063
:1011D00000000000000000000000000EEEEEEEE057
:1011E0000EEE00EEE00EEEEEEEE00EE00EEEE000B3
:1011F00000000EE0000000EEE0000000000000EE45
:10120000E000EEE0EEEEEEE00EEEEEEEEE0EEE00C4
:10121000EEE00EE000000000000000000000000012
:1012200000000000000000000000000EEEEEEEE006
:101230000EEE00EEE00EE00EEEE00EE0EEEEE00070
:101240000000EEE0000000EEE0000000000000EE14
:10125000E000EEE0EEEEEE000EEEEEEEE00EEEEE74
:10126000EEE00EE0000000000000000000000000C2
:1012700000000000000000000000000EEE00000072
:101280000EEE00EEE00EEE0EEEE00EE000EEE00000
:1012900000000EE0000000EEE0000000000000EEA4
:1012A000E000EEE0EEE000000EEE0000000EEEEEDC
:1012B000EEE00EEE00000000000000000000000064
:1012C00000000000000000000000000EE000000030
:1012D0000EE000EEE00EEE00EEE00EEE000EEE0090
:1012E0000000EEE0000EE00EE0000EE0000000EE78
:1012F000E000EEE0EEE000000EEE000000EEEEEEAC
:10130000EEE00EE000000000000000000000000021
:1013100000000000000000000000000EE0000000DF
:101320000EEE00EEE00EE0000EE00EEE00EEE0004D
:1013300000000EEE00EEE00EEE00EEE0000000EE2B
:10134000EE0EEEE0EEE000000EEE0000000EEE000D
:1013500000000EEE00000000000000000000000091
:1013600000000000000000000000000EE00000008F
:101370000EEEEEEEE0EEEE00EEEE0EEEEEEEE00045
:1013800000000EEEEEEEE00EEEEEEEE0000000EEFF
:10139000EEEEEE00EEE000000EEE0000000EEEEECF
:1013A000EEEE0EEEE0000000000000000000000085
:1013B00000000000000000000000000EE00000003F
:1013C00000EEEEEE000EE0000EE000EEEEEE0000AD
:1013D000000000EEEEEE0000EEEEEE000000000E6B
:1013E000EEEEEE00EEE000000EEE00000000EEEE8D
:1013F000EEE000EEE0000000000000000000000051
:1014000000000000000000000000000000000000DC
:1014100000000000000000000000000000000000CC
:1014200000000000000000000000000000000000BC
:1014300000000000000000000000000000000000AC
:1017300000000000000000000000EEE00EEE0EEEE3
:1017400000EE00EEE000000E00E00E000E00000EC5
:101750000E0EEE0000E0000000000000000000009F
:101760000000000000000000000000000000000079
:101770000000000000000000000000000000000069
:1017800000000000000000000000EEEEEE0EEEE0B3
:101790000EEEEEE0E00000EEE0EEEEEE0E0000EE0B
:1017A000EE0EE00EEEE00000000000000000000081
:1017B0000000000000000000000000000000000029
:1017C0000000000000000000000000000000000019
:1017D00000000000000000000000EEEEEEEE0EEE55
:1017E00000EEE0EEE00000E0EEEEEE0EEE0000EEC9
:1017F000E00EEE00EE00000000000000000000001F
:1018000000000000000000000000000000000000D8
:1018100000000000000000000000000000000000C8
:1018200000000000000000000000EE00EEEE0EE000
:101830000EEEE0E0E00000E0EEE0EE00E00000EEA2
:10184000EE0EE000EE0000000000000000000000CE
:101850000000000000000000000000000000000088
:101860000000000000000000000000000000000078
:1018700000000000000000000000E000000E0EEE7E
:1018800000EE00EE000000E000E00E00E0000000CE
:101890000E0EEE000000000000000000000000003E
:1018A0000000000000000000000000000000000038
:1018B0000000000000000000000000000000000028
:1018C0000000000000000000000000000000000018
:1018D0000000000000000000000000000000000008
:101DF0000000000000000000000000000E000000D5
:101E000000000000000000000000000000000000D2
:101E100000000000000000000000000000000000C2
:101E200000000000000000000000000000000000B2
:101E300000000000000000000000000000000000A2
:101E4000000000000000000000000000EEE00000C4
:101E50000000000000000000000000000000000082
:101E60000000000000000000000000000000000072
:101E70000000000000000000000000000000000062
:101E80000000000000000000000000000000000052
:101E90000000000000000000000000000E00000034
:101EA0000000000000000000000000000000000032
:101EB0000000000000000000000000000000000022
:101EC0000000000000000000000000000000000012
:101ED0000000000000000000000000000000000002
:1026E00000000000E000000000000000000000000A
:1026F00000000000000000000000000000000000DA
:1027000000000000000000000000000000000000C9
:1027100000000000000000000000000000000000B9
:1027200000000000000000000000000000000000A9
:1027300000000000E00000000000000000000000B9
:102740000000000000000000000000000000000089
:102750000000000000000000000000000000000079
:102760000000000000000000000000000000000069
:102770000000000000000000000000000000000059
:1027800000000002E0000000000000000000000067
:102790000000000000000000000000000000000039
:1027A0000000000000000000000000000000000029
:1027B0000000000000000000000000000000000019
:1027C0000000000000000000000000000000000009
:1027D0000000000E200000000000000000000000CB
:1027E00000000000000000000000000000000000E9
:1027F00000000000000000000000000000000000D9
:1028000000000000000000000000000000000000C8
:1028100000000000000000000000000000000000B8
:10282000000222EE00000000000000000000000096
:102830000000000000000000000000000000000098
:102840000000000000000000000000000000000088
:102850000000000000000000000000000000000078
:102860000000000000000000000000000000000068
:1028700000EE2EE20000000000000000000000005A
:102880000000000000000000000000000000000048
:102890000000000000000000000000000000000038
:1028A0000000000000000000000000000000000028
:1028B0000000000000000000000000000000000018
:1028C0000022222E00000000000000000000000096
:1028D00000000000000000000000000000000000F8
:1028E00000000000000000000000000000000000E8
:1028F00000000000000000000000000000000000D8
:1029000000000000000000000000000000000000C7
:1029100002E0002E000000000000000000000000A7
:1029200000000000000000000000000000000000A7
:102930000000000000000000000000000000000097
:102940000000000000000000000000000000000087
:102950000000000000000000000000000000000E69
:102960000EEE22EEEEE2E0000000000000000000AB
:102970000000000000000000000000000000000057
:102980000000000000000000000000000000000047
:102990000000000000000000000000000000000037
:1029A000000000000000000000000000000000EE39
:1029B00002EEEEEEEEE02E0000000000000000004F
:1029C0000000000000000000000000000000000007
:1029D00000000000000000000000000000000000F7
:1029E00000000000000000000000000000000000E7
:1029F0000000000000000000000000000000EEEEFB
:102A0000E02EEEE2000EEE200000000000000000CC
:102A100000000000000000000000000000000000B6
:102A200000000000000000000000000000000000A6
:102A30000000000000000000000000000000000096
:102A4000000000000000000000000000000EEEEE9C
:102A5000EE02200000000EE0000000000000000078
:102A60000000000000000000000000000000000066
:102A70000000000000000000000000000000000056
:102A80000000000000000000000000000000000046
:102A90000000000000000000000000000EEEEEEE5E
:102AA000EEE00000000000E0000000000000000078
:102AB0000000000000000000000000000000000016
:102AC0000000000000000000000000000000000006
:102AD00000000000000000000000000000000000F6
:102AE000000000000000000000000000EEEEEEEE2E
:102AF000EEEE0000EEE0000000000000000000002C
:102B000000000000000000000000000000000000C5
:102B100000000000000000000000000000000000B5
:102B200000000000000000000000000000000000A5
:102B300000000000000000000000000EEEEEEEEECF
:102B4000EEE00000EEE000000000000000000000E9
:102B50000000000000000000000000000000000075
:102B60000000000000000000000000000000000065
:102B70000000000000000000000000000000000055
:102B80000000000000000000000000EEEEEEEEEE9F
:102B9000EE00000000000000000000000000000047
:102BA0000000000000000000000000000000000025
:102BB0000000000000000000000000000000000015
:102BC0000000000000000000000000000000000005
:102BD000000000000000000000000EEEEEEEEEEE41
:102BE00000E00EEE202EEE000000000000000000CD
:102BF00000000000000000000000000000000000D5
:102C000000000000000000000000000000000000C4
:102C100000000000000000000000000000000000B4
:102C200000000000000000000000EEEEEEEEEEEE10
:102C30000EE020EE2E2EE220E0000000000000005A
:102C40000000000000000000000000000000000084
:102C50000000000000000000000000000000000074
:102C60000000000000000000000000000000000064
:102C70000000000000000000000EEEEEEEEEEEE0C0
:102C80000E00EE202EE02EE00E00000000000000FE
:102C90000000000000000000000000000000000034
:102CA0000000000000000000000000000000000024
:102CB0000000000000000000000000000000000014
:102CC0000000000000000000000EEEEEEEEEE0005E
:102CD0000EE02E2E20EEEE2000000000000000008E
:102CE00000000000000000000000000000000000E4
:102CF00000000000000000000000000000000000D4
:102D000000000000000000000000000000000000C3
:102D1000000000000000000000EEEEEEEEEE00EE1F
:102D20000EE00E2EEEEE2E00EE0000000000000081
:102D30000000000000000000000000000000000093
:102D40000000000000000000000000000000000083
:102D50000000000000000000000000000000000073
:102D6000000000000000000000EEEEEEEEE00EEECF
:102D7000EEEE0EEEEEEEEE00EE00000000000000C3
:102D80000000000000000000000000000000000043
:102D90000000000000000000000000000000000033
:102DA0000000000000000000000000000000000023
:102DB000000000000000000000EEEEEEEEE0EEEE9F
:102DC000EEEE00EEE2EEE00EE0000000000000009B
:102DD00000000000000000000000000000000000F3
:102DE00000000000000000000000000000000000E3
:102DF00000000000000000000000000000000000D3
:102E00000000000000000000000EEEEEEEE0EEEE2E
:102E1000EEE0E002EEEE00EEEEEEEE00000000006E
:102E200000000000000000000000000000000000A2
:102E30000000000000000000000000000000000092
:102E40000000000000000000000000000000000082
:102E50000000000000000000000EEEEEEEEEEEEED0
:102E6000EEEEEE000000EEE0EEEEEEEE0000000012
:102E70000000000000000000000000000000000052
:102E80000000000000000000000000000000000042
:102E90000000000000000000000000000000000032
:102EA00000000000000000000000EEEEEEEEEEEE8E
:102EB000EEEEEEEEE00EEE0EEEEEEEEEE0000000D8
:102EC0000000000000000000000000000000000002
:102ED00000000000000000000000000000000000F2
:102EE00000000000000000000000000000000000E2
:102EF00000000000000000000000EEEEEEEEEEE04C
:102F0000EEEEEEEEEE0EEEEEEEEEEEEEE000000099
:102F100000000000000000000000000000000000B1
:102F200000000000000000000000000000000000A1
:102F30000000000000000000000000000000000091
:102F4000000000000000000000000EEEEEEEEEEECD
:102F5000EEEEEEEEEE0EEEEEEEEEEEEEE000000049
:102F60000000000000000000000000000000000061
:102F70000000000000000000000000000000000051
:102F80000000000000000000000000000000000041
:102F90000000000000000000000000EEEEEEEEEE8B
:102FA000EEEEEEEEEE0EEEEEEEEEEEEEEE000000EB
:102FB0000000000000000000000000000000000011
:102FC0000000000000000000000000000000000001
:102FD00000000000000000000000000000000000F1
:102FE00000000000000000000000000EEEEEE0EE29
:102FF000EEEEEEEEEE00EEEEEEEEEEEEEE000000A9
:1030000000000000000000000000000000000000C0
:1030100000000000000000000000000000000000B0
:1030200000000000000000000000000000000000A0
:10303000000000000000000000000000EEEEEEEED8
:10304000EEEEEEEEEEE00EEEEEEEEEEEEE00000058
:103050000000000000000000000000000000000070
:103060000000000000000000000000000000000060
:103070000000000000000000000000000000000050
:103080000000000000000000000000000EEEEEEE68
:10309000EEEEEEEEEEEE0EEEEEEEEEEEEEEE00000C
:1030A0000000000000000000000000000000000020
:1030B0000000000000000000000000000000000010
:1030C0000000000000000000000000000000000000
:1030D0000000000000000000000000000000EEEE14
:1030E000EEEEEEEEEEEE00EEEEEEEE0EEEEEE000CA
:1030F00000000000000000000000000000000000D0
:1031000000000000000000000000000000000000BF
:1031100000000000000000000000000000000000AF
:10312000000000000000000000000000000EEEEEB5
:10313000EEEEEEEEEEEE00EEEEEEEEEEEEEEEE008B
:10314000000000000000000000000000000000007F
:10315000000000000000000000000000000000006F
:10316000000000000000000000000000000000005F
:1031700000000000000000000000000000EEEEEE85
:10318000EEEEEEEEEEEE00EEEEEEEE0EEEEEEE001B
:10319000000000000000000000000000000000002F
:1031A000000000000000000000000000000000001F
:1031B000000000000000000000000000000000000F
:1031C00000000000000000000000000000EEEEEE35
:1031D000EEEEEEEEEEEE00EEEEEEEEEEEEEEEEE00B
:1031E00000000000000000000000000000000000DF
:1031F00000000000000000000000000000000000CF
:1032000000000000000000000000000000000000BE
:1032100000000000000000000000000000EEEEEEE4
:10322000EEEEEEEEEEEE00EEEEEEEEEEEEEEEEEEAC
:10323000000000000000000000000000000000008E
:10324000000000000000000000000000000000007E
:10325000000000000000000000000000000000006E
:1032600000000000000000000000000000EEEEEE94
:10327000EEEEEEEEEEEE00EEEEEEEEEEEEEEEEEE5C
:10328000000000000000000000000000000000003E
:10329000000000000000000000000000000000002E
:1032A000000000000000000000000000000000001E
:1032B000000000000000000000000000000EEEEE24
:1032C000EEEEEEEEEEEE0EEEEEEEEE0EEEEEEEEEDE
:1032D000E00000000000000000000000000000000E
:1032E00000000000000000000000000000000000DE
:1032F00000000000000000000000000000000000CE
:10330000000000000000000000000000000EEEEED3
:10331000EEEEEEEEEEEE0EEEEEEEEE0EEEEEEEEE8D
:10332000E0000000000000000000000000000000BD
:10333000000000000000000000000000000000008D
:10334000000000000000000000000000000000007D
:10335000000000000000000000000000000EEEEE83
:10336000EEEEEEEEEEEE0EEEEEEEEE00EEEEEEEE4B
:10337000E00000000000000000000000000000006D
:10338000000000000000000000000000000000003D
:10339000000000000000000000000000000000002D
:1033A000000000000000000000000000000EEEEE33
:1033B000EEEEEEEEEEEE0EEEEEEEE0EEEEEEEEEE1B
:1033C000E00000000000000000000000000000001D
:1033D00000000000000000000000000000000000ED
:1033E00000000000000000000000000000000000DD
:1033F000000000000000000000000000000EEEEEE3
:10340000EEEEEEEEEEEE00EEEE00EEEEEEEEEEEEB8
:10341000E0000000000000000000000000000000CC
:10342000000000000000000000000000000000009C
:10343000000000000000000000000000000000008C
:103440000000000000000000000000000000EEEEA0
:103450000EEEEEEEEEEE00EEEEEEEEEEEEEEEEEE5A
:10346000E00000000000000000000000000000007C
:10347000000000000000000000000000000000004C
:10348000000000000000000000000000000000003C
:10349000000000000000000000000000000EEEE050
:1034A000EEEEEEEEEEEE00E0EEEEEEEEEEEEEEE046
:1034B000000000000000000000000000000000000C
:1034C00000000000000000000000000000000000FC
:1034D00000000000000000000000000000000000EC
:1034E0000000000000000000000000000000EEEE00
:1034F000EEEEEEEEEEEE00EEEEEEEEEEEEEEEEE0E8
:10350000000000600000000000000000000000005B
:1035100000000000000000000000000000000000AB
:10352000000000000000000000000000000000009B
:10353000000000000000000000000000000EEEEEA1
:10354000EEEEEEEEEEE0000EEEEEEEEEEEEEE00C67
:10355000EECEEEEEE00000000000000000000000F3
:10356000000000000000000000000000000000005B
:10357000000000000000000000000000000000004B
:103580000000000000000000000000000000EEE06D
:10359000EEEEEEEEEE02EE20EEEEEEEEEEE0066683
:1035A0006C6EEEEEEE600000000000000000000017
:1035B000000000000000000000000000000000000B
:1035C00000000000000000000000000000000000FB
:1035D0000000000000000000000000000000EEEE0F
:1035E000EEEEEEEE022EEEE0EEEEEEEEE0006666C1
:1035F0006666EEEEEEEE0000000000000000000047
:1036000000000000000000000000000000000000BA
:1036100000000000000000000000000000000000AA
:103620000000000000000000000000000000EEE0CC
:10363000EE0EEEEEE02EEEE20EEEEE000006C666B8
:10364000666666EEEEEEE600000000000000000098
:10365000000000000000000000000000000000006A
:10366000000000000000000000000000000000005A
:103670000000000000000000000000000000EEEE6E
:10368000EEEEEEEEE22EEEEE0EEE00000666666662
:1036900066666666ECEEEEE60000000000000000E4
:1036A000000000000000000000000000000000001A
:1036B000000000000000000000000000000000000A
:1036C00000000000000000000000000000000EEEFE
:1036D000EEEEEEEE22EEEEEE000000000666006674
:1036E0006666666666EEEEEEE00000000000000032
:1036F00000000000000000000000000000000000CA
:1037000000000000000000000000000000000000B9
:1037100000000000000000000000000000000EEEAD
:10372000EEEEEEE002E02220E0EE00000666066625
:1037300000600006666EEEEEEE6000000000000025
:103740000000000000000000000000000000000079
:103750000000000000000000000000000000000069
:1037600000000000000000000000000000000EEE5D
:103770000EEEEEE0020E020EEEE00060666000006B
:103780000000000606666EE66666000000000000A7
:103790000000000000000000000000000000000029
:1037A0000000000000000000000000000000000019
:1037B00000000000000000000000000000000EEE0D
:1037C000EEEE0EE00020000EEE0000606000000053
:1037D000000000006666066666666600000000007F
:1037E00000000000000000000000000000000000D9
:1037F00000000000000000000000000000000000C9
:1038000000000000000000000000000000000EEEBC
:10381000EEEEEEEE0000000EE000060000000000FC
:1038200000000000660066666666666600000000CE
:103830000000000000000000000000000000000088
:103840000000000000000000000000000000000078
:1038500000000000000000000000000000000EEE6C
:10386000EEEEEEEEEEEEEE000000000000000000D6
:103870000000000000000666666666660000000044
:103880000000000000000000000000000000000038
:103890000000000000000000000000000000000028
:1038A000000000000000000000000000000000EE2A
:1038B000EEEEEEEEEEEEEE00000000000000000086
:1038C00000000000000000000066660666C60000FA
:1038D00000000000000000000000000000000000E8
:1038E00000000000000000000000000000000000D8
:1038F000000000000000000000000000000000EEDA
:10390000EEEEEEEEEEEEE000000000000000000043
:10391000000000000000000666600006066000006F
:103920000000000000000000000000000000000097
:103930000000000000000000000000000000000087
:103940000000000000000000000000000000000077
:103950000EEEEEEEEE0000000000000000000000A1
:10396000000000000000000000006606600000008B
:103970000000000000000000000000000000000047
:103980000000000000000000000000000000000037
:103990000000000000000000000000000000000027
:1039A0000000000000000000000000000000000017
:1039B000000000000000000000006606600000003B
:1039C00000000000000000000000000000000000F7
:1039D00000000000000000000000000000000000E7
:1039E00000000000000000000000000000000000D7
:1039F00000000000000000000600000000000000C1
:103A00000000000000000000000000066060600090
:103A100000000000000000000000000000000000A6
:103A20000000000000000000000000000000000096
:103A30000000000000000000000000000000000086
:103A40000066000000000000000000000000000010
:103A50000000000000000000000000000006000060
:103A60000000000000000000000000000000000056
:103A70000000000000000000000000000000000046
:103A80000000000000000000000000000000000036
:103A90000000006660000000000000000000000060
:103AA0000000000000000000000000000006000010
:103AB0000000000000000000000000000000000006
:103AC00000000000000000000000000000000000F6
:103AD00000000000000000000000000000000000E6
:103AE00000066660006600000000000000000000A4
:103AF00000000000000000000000000000000000C6
:103B000000000000000000000000000000000000B5
:103B100000000000000000000000000000000000A5
:103B20000000000000000000000000000000000095
:103B3000000666666600000000000000000000004D
:103B40000000000000000000000000000000000075
:103B50000000000000000000000000000000000065
:103B60000000000000000000000000000000000055
:103B70000000000000000000000000000000000045
:103B8000006666C6666600000000000000000000D7
:103B90000000000000000000000000000000000025
:103BA0000000000000000000000000000000000015
:103BB0000000000000000000000000000000000005
:103BC00000000000000000000000000000000000F5
:103BD0000666666666606060000000000000000027
:103BE00000000000000000000000000000000000D5
:103BF00000000000000000000000000000000000C5
:103C000000000000000000000000000000000000B4
:103C100000000000000000000000000000000000A4
:103C2000066666CC6666000000000000000000002A
:103C30000000000000000000000000000000000084
:103C40000000000000000000000000000000000074
:103C50000000000000000000000000000000000064
:103C60000000000000000000000000000000000054
:103C70000666CE66666600000000000000000000D8
:103C80000000000000000000000000000000000034
:103C90000000000000000000000000000000000024
:103CA0000000000000000000000000000000000014
:103CB0000000000000000000000000000000000004
:103CC0000066666E666000000000000000000000F4
:103CD00000000000000000000000000000000000E4
:103CE00000000000000000000000000000000000D4
:103CF00000000000000000000000000000000000C4
:103D000000000000000000000000000000000000B3
:103D1000000666EC6C660000000000000000000079
:103D20000000000000000000000000000000000093
:103D30000000000000000000000000000000000083
:103D40000000000000000000000000000000000073
:103D50000000000000000000000000000000000063
:103D600000666E66CC666600000000000000000081
:103D70000000000000000000000000000000000043
:103D80000000000000000000000000000000000033
:103D90000000000000000000000000000000000023
:103DA0000000000000000000000000000000000013
:103DB000006666666E66600000000000000000009D
:103DC00000000000000000000000000000000000F3
:103DD00000000000000000000000000000000000E3
:103DE00000000000000000000000000000000000D3
:103DF00000000000000000000000000000000000C3
:103E0000000666C6C6E600000000000000000000D4
:103E100000000000000000000000000000000000A2
:103E20000000000000000000000000000000000092
:103E30000000000000000000000000000000000082
:103E40000000000000000000000000000000000072
:103E5000000666EECCC0000000000000000000007C
:103E60000000000000000000000000000000000052
:103E70000000000000000000000000000000000042
:103E80000000000000000000000000000000000032
:103E90000000000000000000000000000000000022
:103EA000000666E66C6000000000000000000000F4
:103EB0000000000000000000000000000000000002
:103EC00000000000000000000000000000000000F2
:103ED00000000000000000000000000000000000E2
:103EE00000000000000000000000000000000000D2
:103EF000000666ECCC60000000000000000000003E
:103F000000000000000000000000000000000000B1
:103F100000000000000000000000000000000000A1
:103F20000000000000000000000000000000000091
:103F30000000000000000000000000000000000081
:103F40000006666C66C6000000000000000000006D
:103F50000000000000000000000000000000000061
:103F60000000000000000000000000000000000051
:103F70000000000000000000000000000000000041
:103F80000000000000000000000000000000000031
:103F90000000666CCC6660000000000000000000BD
:103FA0000000000000000000000000000000000011
:103FB0000000000000000000000000000000000001
:103FC00000000000000000000000000000000000F1
:103FD00000000000000000000000000000000000E1
:103FE000000066666E660000000000000000000031
:103FF00000000000000000000000000000000000C1
:1040000000000000000000000000000000000000B0
:1040100000000000000000000000000000000000A0
:104020000000000000000000000000000000000090
:104030000000066CC66600000000000000000000E2
:104040000000000000000000000000000000000070
:104050000000000000000000000000000000000060
:104060000000000000000000000000000000000050
:104070000000000000000000000000000000000040
:1040800000000666666600000000000000000000F8
:104090000000000000000000000000000000000020
:1040A0000000000000000000000000000000000010
:1040B0000000000000000000000000000000000000
:1040C00000000000000000000000000000000000F0
:1040D000000066666660000000000000000000004E
:1040E00000000000000000000000000000000000D0
:1040F00000000000000000000000000000000000C0
:1041000000000000000000000000000000000000AF
:10411000000000000000000000000000000000009F
:1041200000000666660000000000000000000000BD
:10413000000000000000000000000000000000007F
:10414000000000000000000000000000000000006F
:10415000000000000000000000000000000000005F
:10416000000000000000000000000000000000004F
:10417000000006666600000000000000000000006D
:10418000000000000000000000000000000000002F
:10419000000000000000000000000000000000001F
:1041A000000000000000000000000000000000000F
:1041B00000000000000000000000000000000000FF
:1041C00000000066606600000000000000000000C3
:1041D00000000000000000000000000000000000DF
:1041E00000000000000000000000000000000000CF
:1041F00000000000000000000000000000000000BF
:1042000000000000000000000000000000000000AE
:10421000000000060666000000000000000000002C
:10422000000000000000000000000000000000008E
:10423000000000000000000000000000000000007E
:10424000000000000000000000000000000000006E
:10425000000000000000000000000000000000005E
:104260000000000066660000000000000000000082
:10427000000000000000000000000000000000003E
:10428000000000000000000000000000000000002E
:10429000000000000000000000000000000000001E
:1042A000000000000000000000000000000000000E
:1042B0000000000006660000000000000000000092
:1042C00000000000000000000000000000000000EE
:1042D00000000000000000000000000000000000DE
:1042E00000000000000000000000000000000000CE
:1042F00000000000000000000000000000000000BE
:104300000000000006660000000000000000000041
:10431000000000000000000000000000000000009D
:10432000000000000000000000000000000000008D
:10433000000000000000000000000000000000007D
:10434000000000000000000000000000000000006D
:1043500000000000660000000000000000000000F7
:10436000000000000000000000000000000000004D
:10437000000000000000000000000000000000003D
:10438000000000000000000000000000000000002D
:10439000000000000000000000000000000000001D
:1045800000000000000000600000000000000000CB
:10459000000000000000000000000000000000001B
:1045A000000000000000000000000000000000000B
:1045B00000000000000000000000000000000000FB
:1045C00000000000000000000000000000000000EB
:1045D00000000000000000000000000000000000DB
:1045E00000000000000000000000000000000000CB
:1045F00000000000000000000000000000000000BB
:1046000000000000000000000000000000000000AA
:10461000000000000000000000000000000000009A
:10462000000000000000000000000000000000008A
:10463000000000000000000000000000000000007A
:10464000000000000000000000000000000000006A
:10465000000000000000000000000000000000005A
:10466000000000000000000000000000000000004A
:10467000000000000000000000000000000000003A
:10468000000000000000000000000000000000002A
:10469000000000000000000000000000000000001A
:1046A000000000000000000000000000000000000A
:1046B00000000000000000000000000000000000FA
:1046C000000000000000006000000000000000008A
:1046D00000000000000000000000000000000000DA
:1046E00000000000000000000000000000000000CA
:1046F00000000000000000000000000000000000BA
:1047000000000000000000000000000000000000A9
:104710000000000000000000000000000000000099
:104720000000000000000000000000000000000089
:104730000000000000000000000000000000000079
:104740000000000000000000000000000000000069
:104750000000000000000000000000000000000059
:104760000000000000000000000000000000000049
:104770000000000000000000000000000000000039
:104780000000000000000000000000000000000029
:104790000000000000000000000000000000000019
:1047A0000000000000000000000000000000000009
:1047B00000000000000000000000000000000000F9
:1047C00000000000000000000000000000000000E9
:1047D00000000000000000000000000000000000D9
:1047E00000000000000000000000000000000000C9
:1047F00000000000000000000000000000000000B9
:1048000000000000000000000000000000000000A8
:104810000000000000000000000000000000000098
:10482000000000000000000000000000E0000000A8
:104830000000000000000000000000000000000078
:104840000000000000000000000000000000000068
:104850000000000000000000000000000000000058
:104860000000000000000000000000000000000048
:1048700000000000000000000000000EEE0000003C
:104880000000000000000000000000000000000028
:104890000000000000000000000000000000000018
:1048A0000000000000000000000000000000000008
:1048B00000000000000000000000000000000000F8
:1048C0000000000000000000000000EEEEE000002C
:1048D00000000000000000000000000000000000D8
:1048E00000000000000000000000000000000000C8
:1048F00000000000000000000000000000000000B8
:1049000000000000000000000000000000000000A7
:1049100000000000000000000000000EEE0000009B
:104920000000000000000000000000000000000087
:104930000000000000000000000000000000000077
:104940000000000000000000000000000000000067
:104950000000000000000000000000000000000057
:10496000000000000000000000000000E000000067
:104970000000000000000000000000000000000037
:104980000000000000000000000000000000000027
:104990000000000000000000000000000000000017
:1049A0000000000000000000000000000000000007
:10561000000000000000000000000000002000006A
:10562000000000000000000000000000000000007A
:10563000000000000000000000000000000000006A
:10564000000000000000000000000000000000005A
:10565000000000000000000000000000000000004A
:105660000000000000000000000000EEEEEEEE2062
:10567000000000000000000000000000000000002A
:10568000000000000000000000000000000000001A
:10569000000000000000000000000000000000000A
:1056A00000000000000000000000000000000000FA
:1056B00000000000000000000000EEEEEEEEEEEE56
:1056C000E0000000000000000000000000000000FA
:1056D00000000000000000000000000000000000CA
:1056E00000000000000000000000000000000000BA
:1056F00000000000000000000000000000000000AA
:105700000000000000000000000EEEEEEEEEEEEEF7
:10571000EEE00000000000000000000000000000BB
:105720000000000000000000000000000000000079
:105730000000000000000000000000000000000069
:105740000000000000000000000000000000000059
:105750000000000000000000002EEEEEEEEEEEEE87
:10576000EEEE00000000000000000000000000005D
:105770000000000000000000000000000000000029
:105780000000000000000000000000000000000019
:105790000000000000000000000000000000000009
:1057A0000000000000000000002EEEEEEEEEEEEE37
:1057B000EEEEE0000000000000000000000000002D
:1057C00000000000000000000000000000000000D9
:1057D00000000000000000000000000000000000C9
:1057E00000000000000000000000000000000000B9
:1057F0000000000000000000002EEEEEEEEEEEEEE7
:10580000EEEEE000000000000000000000000000DC
:105810000000000000000000000000000000000088
:105820000000000000000000000000000000000078
:105830000000000000000000000000000000000068
:10584000000000000000000202EEEEEEEEEEEEEED2
:10585000EEEEEE000000000000000000000000007E
:105860000000000000000000000000000000000038
:105870000000000000000000000000000000000028
:105880000000000000000000000000000000000018
:1058900000000000000000002EE00EE2EEEEEEEE52
:1058A000EEEEEE000000000000000000000000002E
:1058B00000000000000000000000000000000000E8
:1058C00000000000000000000000000000000000D8
:1058D00000000000000000000000000000000000C8
:1058E000000000000000000000000000000EEEEECE
:1058F000EEEEEE20000000000000000000000000BE
:105900000000000000000000000000000000000097
:105910000000000000000000000000000000000087
:105920000000000000000000000000000000EEEE9B
:10593000EEEEEEEEEEEEE0002EEE0EEE0000EEEEFF
:10594000EEEEEEE0000000000000000000000000AD
:105950000000000000000000000000000000000047
:105960000000000000000000000000000000000037
:105970000000000000000000000000000EEEEE023B
:10598000E0EE00EE2EEEEEEEEEEE0EEEE0000EEEAF
:10599000EEEEEE200000000000000000000000001D
:1059A00000000000000000000000000000000000F7
:1059B00000000000000000000000000000000000E7
:1059C0000000000000000000000000000EEEEE00ED
:1059D00000EE0EEEEEEEEEEEEEEE0E00000000EE4D
:1059E000EEEEEE20000000000000000000000000CD
:1059F00000000000000000000000000000000000A7
:105A00000000000000000000000000000000000096
:105A100000000000000000000000000000EEEEEEBC
:105A2000EE0EEEEEEEEEEEEEEEEEEEE0000000003C
:105A30002000EEE000000000000000000000000078
:105A40000000000000000000000000000000000056
:105A50000000000000000000000000000000000046
:105A600000000000000000000EEEEEE000EEEEEEA2
:105A7000EEE2EEEEEEEEEEEEEEEE0EEE20020EE0DA
:105A8000000000E000000000000000000000000036
:105A90000000000000000000000000000000000006
:105AA00000000000000000000000000000000000F6
:105AB0000000000000000000EEEEEEEEE0EEEEEE84
:105AC000EE00EEEEEEEEEEEEEEEE2EEEEEEE0EE092
:105AD00000220000000000000000000000000000A4
:105AE00000000000000000000000000000000000B6
:105AF00000000000000000000000000000000000A6
:105B00000000000000000000EEEEEEEEEEEEEEEE25
:105B1000EE020EEEEEEEEEEEEEEEE02EEEE0EEE05B
:105B20000002E22000000000000000000000000071
:105B30000000000000000000000000000000000065
:105B40000000000000000000000000000000000055
:105B5000000000000000000EEEEEEEEEEEEEEEEEC7
:105B6000EE220EEEEEEEEEEEEEEEEE2000EEEEE0CB
:105B700000002220000000000000000000000000E3
:105B80000000000000000000000000000000000015
:105B90000000000000000000000000000000000005
:105BA000000000000000000EEEEEEEEEEEEEEEEE77
:105BB000EE0222EEEEEEEEEEEEEEEEEE0EE2EEEEA9
:105BC000E2200E20000000000000000000000000A5
:105BD00000000000000000000000000000000000C5
:105BE00000000000000000000000000000000000B5
:105BF0000000000000000EEEEEEEEEEEEEEEE00E27
:105C0000EEE22222EEEEEEEEEEEEEEE0EEE0EEEE74
:105C1000EE02EE00000000000000000000000000A6
:105C20000000000000000000000000000000000074
:105C30000000000000000000000000000000000064
:105C400000000000000EEEEEE22EEEEEEEEEEE00B4
:105C500020E0EE22EEEEEEEEEEEE2202EEE222008A
:105C60000EEEEE000000000000000000000000004A
:105C70000000000000000000000000000000000024
:105C80000000000000000000000000000000000014
:105C900000000000000EEEEEEE200EEEEEEEEEE066
:105CA0000220EE20EEEEEEEEEEEE002EEE200000F4
:105CB00000022000000000000000000000000000C2
:105CC00000000000000000000000000000000000D4
:105CD00000000000000000000000000000000000C4
:105CE00000000000000EEEEEEEE00022EEEEEEEE22
:105CF0000220EE00EEEEEEEEEEEE00022EEE22E0E0
:105D00002EE2200000000000000000000000000063
:105D10000000000000000000000000000000000083
:105D20000000000000000000000000000000000073
:105D300000000000000EEEEEEEEE20222EEEEEE071
:105D4000EEEEEE22EEEEEEEEEEEE2200EE02EEE0F3
:105D50000EEE200000000000000000000000000027
:105D60000000000000000000000000000000000033
:105D70000000000000000000000000000000000023
:105D800000000000000EEEEEEEEEEE02202EEE0021
:105D9000EEEEEE22EE22EEEEEEE28EEEEEEE002ED5
:105DA000028E000000000000000000000000000063
:105DB00000000000000000000000000000000000E3
:105DC00000000000000000000000000000000000D3
:105DD00000000000000EEEEEEEEEEEE22EEEE0EE43
:105DE000EEEEEEE000220EE0EEE8EEEEEEEEE0008B
:105DF00002E20000000000000000000000000000BF
:105E00000000000000000000000000000000000092
:105E10000000000000000000000000000000000082
:105E200000000000000EEEEEEEEEEEEE2EEEEEE0E6
:105E30000EEEEEE000EE0EEEEE2EEEEEE2EEEE00F8
:105E40000EE2000000000000000000000000000062
:105E50000000000000000000000000000000000042
:105E60000000000000000000000000000000000032
:105E700000000000000EEE0EEEEEEEEEEEEEEEEEA8
:105E8000EEEE2E00400EEEEEEE2EEEEEE222EEEE06
:105E9000EEE0000000000000000000000000000034
:105EA00000000000000000000000000000000000F2
:105EB00000000000000000000000000000000000E2
:105EC00000000000000EEEE0EEEEEEEEEEEEEEEE86
:105ED000EEEEEEE0000EEEEEEE0EEEEEEEEE2EEE5E
:105EE000E2200000000000000000000000000000B0
:105EF00000000000000000000000000000000000A2
:105F00000000000000000000000000000000000091
:105F100000000000000EEEEE0EEEEEEEEEEEEEEE07
:105F2000EEEEEEE20000EEEEEE022EEEEEEEEEEE25
:105F30002E00000000000000000000000000000033
:105F40000000000000000000000000000000000051
:105F50000000000000000000000000000000000041
:105F600000000000000EEEEEE02EEEEEEEEEE28817
:105F700088888882000288888E020EEEEEEEEEEEB1
:105F80002E000000000000000000000000000000E3
:105F90000000000000000000000000000000000001
:105FA00000000000000000000000000000000000F1
:105FB00000000000000EEEEEE200EEEEEEEEEE88E7
:105FC000888888882288888888020022EEEEEEE0A1
:105FD00020000000000000000000000000000000A1
:105FE00000000000000000000000000000000000B1
:105FF00000000000000000000000000000000000A1
:1060000000000000000EEEEEEE0002EEEEEEEEE21C
:10601000888888888888888888E2200000EEEE02D8
:106020002000000000000000000000000000000050
:106030000000000000000000000000000000000060
:106040000000000000000000000000000000000050
:1060500000000000000EEEEEE222002EE2EEEEE284
:10606000888888888888888888E220000000000E58
:106070000000000000000000000000000000000020
:106080000000000000000000000000000000000010
:106090000000000000000000000000000000000000
:1060A0000000000000022EEEE2220002EEEEEEEE14
:1060B00088888888888888888EE020022222E222C8
:1060C00000000000000000000000000000000000D0
:1060D00000000000000000000000000000000000C0
:1060E00000000000000000000000000000000000B0
:1060F0000000000000000222222000000EEEEEE26E
:106100008888888888888888000220002EEE22E00F
:10611000000000000000000000000000000000007F
:10612000000000000000000000000000000000006F
:10613000000000000000000000000000000000005F
:1061400000000000000E00022200220000EEEE22FD
:1061500088888888888888880222200000222E006B
:10616000000220000000000000000000000000000D
:10617000000000000000000000000000000000001F
:10618000000000000000000000000000000000000F
:10619000000000000002E22002022200200002882B
:1061A0008888888888888880222220000002EE0063
:1061B00000022200000000000000000000000000BB
:1061C00000000000000000000000000000000000CF
:1061D00000000000000000000000000000000000BF
:1061E000000000000000EEEE000020020020028807
:1061F0008888888888888802220020000002E000C1
:10620000000220000000000000000000000000006C
:10621000000000000000000000000000000000007E
:10622000000000000000000000000000000000006E
:10623000000000000000E88E20000002002200089C
:10624000888888888888202222222200002E200028
:10625000002000000000000000000000000000001E
:10626000000000000000000000000000000000002E
:10627000000000000000000000000000000000001E
:1062800000000000000E888E200022002200200264
:1062900008888888888002202222220002EE0000DE
:1062A00002000000000000000000000000000000EC
:1062B00000000000000000000000000000000000DE
:1062C00000000000000000000000000000000000CE
:1062D00000000000000E888E200002200002222212
:1062E0002228E88EE0222022002222000EE0000078
:1062F000200000000000000000000000000000007E
:10630000000000000000000000000000000000008D
:10631000000000000000000000000000000000007D
:1063200000000000000E88822002220002222222A9
:10633000222EEEEE20222222200222000000000265
:10634000022000000000000000000000000000002B
:10635000000000000000000000000000000000003D
:10636000000000000000000000000000000000002D
:1063700000000000000E88E200220000222202221B
:106380002222EE020222222222002200000000220B
:106390000222222220000000000000000000000075
:1063A00000000000000000000000000000000000ED
:1063B00000000000000000000000000000000000DD
:1063C00000000000000E8EE20000002022220022C9
:1063D0002222EEEE022222202220020000002220B1
:1063E0000220222222220000000000000000000003
:1063F000000000000000000000000000000000009D
:10640000000000000000000000000000000000008C
:106410000000000000022220200000222222002290
:106420002222EEEE0222222222222200000222005A
:10643000222202222222220000000000000000008E
:10644000000000000000000000000000000000004C
:10645000000000000000000000000000000000003C
:10646000000000000002022200000002222202229C
:106470002222EEEEE002222222222200002222022A
:1064800022222222222222200000000000000000FE
:1064900000000000000000000000000000000000FC
:1064A00000000000000000000000000000000000EC
:1064B0000000000000020220000000002220022252
:1064C00022EEEEEEEE2222222222220000220022E2
:1064D00022222222022222220000000000000000CC
:1064E00000000000000000000000000000000000AC
:1064F000000000000000000000000000000000009C
:106500000000000000020000000000202200020045
:10651000EEEEEEEEEEEEEEE2022222000222222269
:10652000222222022022222220000000000000005D
:10653000000000000000000000000000000000005B
:10654000000000000000000000000000000000004B
:1065500000000000000000000000002222002EEEDB
:10656000EEEEEEEEEEEEEE22222222200222222299
:1065700022222222202222222000000000000000ED
:10658000000000000000000000000000000000000B
:1065900000000000000000000000000000000000FB
:1065A0000000000000000000000002222000EEEECB
:1065B0000EEE02002000022222222220222222228B
:1065C000222222222022222220000000000000009D
:1065D00000000000000000000000000000000000BB
:1065E00000000000000000000000000000000000AB
:1065F0000000000000000000000002222000220035
:10660000000022222222222222222220E2222222F0
:10661000222222222002222222000000000000006A
:10662000000000000000000000000000000000006A
:10663000000000000000000000000000000000005A
:1066400000000000000000000000222220022222A0
:106650000002222222222222222222200022222280
:106660002222222222022222220000000000000018
:10667000000000000000000000000000000000001A
:10668000000000000000000000000000000000000A
:10669000000000000000000200022222000222226C
:1066A00022222222222222222222222022222222CC
:1066B00022222222222222222200000000000000A8
:1066C00000000000000000000000000000000000CA
:1066D00000000000000000000000000000000000BA
:1066E00000000000000000200022222200022222DE
:1066F000222222222222222222222222002222229C
:106700002222222222222222222000000000000037
:106710000000000000000000000000000000000079
:106720000000000000000000000000000000000069
:1067300000000000000000000222222200022222AB
:10674000222222222002222222222222200222226D
:1067500022222222222222222220000000000000E7
:106760000000000000000000000000000000000029
:106770000000000000000000000000000000000019
:10678000000000000000000022222220002222221D
:1067900022222222220222222222222222222222F9
:1067A0002222222222222222222000000000000097
:1067B00000000000000000000000000000000000D9
:1067C00000000000000000000000000000000000C9
:1067D00000000000000000022222220000222222EB
:1067E000222222222022222222222222222222228B
:1067F0002222222222222222222000000000000047
:106800000000000000000000000000000000000088
:106810000000000000000000000000000000000078
:10682000000000000000002220220000002222229E
:106830002222222222222222222222222222222238
:106840002222222022222222220000000000000018
:106850000000000000000000000000000000000038
:106860000000000000000000000000000000000028
:1068700000000000000002220000000000002222B0
:1068800022222222222222222222222222222222E8
:1068900022222222222222202220000000000000A8
:1068A00000000000000000000000000000000000E8
:1068B00000000000000000000000000000000000D8
:1068C00000000000000000200000000000000002A6
:1068D0002222222222222222222222222222222298
:1068E0002222222222222222222000000000000056
:1068F0000000000000000000000000000000000098
:106900000000000000000000000000000000000087
:106910000000000000000000000000000000000077
:10692000000022222222222222222222222222228B
:106930002222222222222222222200000000000003
:106940000000000000000000000000000000000047
:106950000000000000000000000000000000000037
:1069600000000000000000000000000002202222C1
:10697000200000022022222222222222222222225F
:1069800022222222222222222222000000000000B3
:1069900000000000000000000000000000000000F7
:1069A00000000000000000000000000000000000E7
:1069B0000000000000000000000000000220222271
:1069C000222222000000022222222222222222222D
:1069D0002222222222222222222200000000000063
:1069E00000000000000000000000000000000000A7
:1069F0000000000000000000000000000000000097
:106A0000000000000000000000000000022222221E
:106A10002222222222222222022022222222222278
:106A200022222222222222222222200000000000F2
:106A30000000000000000000000000000000000056
:106A40000000000000000000000000000000000046
:106A500000000000000000000000000000202222D2
:106A60002222222222222222222222222222222206
:106A700022222222222222222222200000000000A2
:106A80000000000000000000000000000000000006
:106A900000000000000000000000000000000000F6
:106AA00000000000000202000000000000000022C0
:106AB00022222222222222222222222222222222B6
:106AC0002222220022222220022222000000000094
:106AD00000000000000000000000000000000000B6
:106AE00000000000000000000000000000000000A6
:106AF0000000000000002220020000000000002230
:106B00002222222222222222222222222022222267
:106B10002222222220000022222222000000000045
:106B20000000000000000000000000000000000065
:106B30000000000000000000000000000000000055
:106B40000000000000002200220000000000000001
:106B50002222222222222222222222222220222217
:106B600022222222222222022222220000000000CF
:106B70000000000000000000000000000000000015
:106B80000000000000000000000000000000000005
:106B90000000000000022000222000000000000091
:106BA0000022222222222222222222220220222209
:106BB000222222222222222222222200000000005F
:106BC00000000000000000000000000000000000C5
:106BD00000000000000000000000000000000000B5
:106BE000000000000002000222200000000000005F
:106BF00000022222222222222222222202202222D9
:106C0000222222222222222222222200000000000E
:106C10000000000000000000000000000000000074
:106C20000000000000000000000000000000000064
:106C300000000000000200022020200000000000F0
:106C400000000222222222222222222202002222CA
:106C500022222222222222222222220000000000BE
:106C60000000000000000000000000000000000024
:106C70000000000000000000000000000000000014
:106C80000000000000020022222222222200000036
:106C90000000000022222222222222202200222280
:106CA000222222222222220222222200000000008E
:106CB00000000000000000000000000000000000D4
:106CC00000000000000000000000000000000000C4
:106CD0000000000000000222222222222222222082
:106CE00000000000000000022222222220022222B4
:106CF000222222222222220222222200000000003E
:106D00000000000000000000000000000000000083
:106D10000000000000000000000000000000000073
:106D20000000000000000222202222222220202235
:106D30002222222222200000000022222002200003
:106D40000000002222222202220EEE00000000009B
:106D50000000000000000000000000000000000033
:106D60000000000000000000000000000000000023
:106D70000000000000002222022222222200000243
:106D800020222222222222222200002000202EEE77
:106D9000EEEEEE2222222202000EEE0000000000A3
:106DA00000000000000000000000000000000000E3
:106DB00000000000000000000000000000000000D3
:106DC00000000000000022202222222222000000D7
:106DD00000022222222222222222222EEEEEEEEE99
:106DE000EEEEEE2E20022000000EEE00000000006D
:106DF0000000000000000000000000000000000093
:106E00000000000000000000000000000000000082
:106E10000000000000022220222222222000000086
:106E20000222EE22222222222222EEEEEEEEEEEECE
:106E3000EEEEEEEE222220000222EE000000000024
:106E40000000000000000000000000000000000042
:106E50000000000000000000000000000000000032
:106E60000000000000022202022220022EEEEEEEBE
:106E7000EEEEEEEEE22222222222EEE2EEEEEEEE46
:106E8000EEEEEEEE22222000E200E800000000001C
:106E900000000000000000000000000000000000F2
:106EA00000000000000000000000000000000000E2
:106EB000000000000002200202222EEEEEEEEEEEB6
:106EC000EEEEEEEE2222222222222EEEEEEEEE88D0
:106ED00088EEEEEE0222200EEE22E8000000000016
:106EE00000000000000000000000000000000000A2
:106EF0000000000000000000000000000000000092
:106F000000000000000220000002EEEEEEEEEEEEC9
:106F1000EEEEEEEE0222222222222EEEEEEEEE889F
:106F2000888EE88E02220000EE20E80000000000BB
:106F30000000000000000000000000000000000051
:106F40000000000000000000000000000000000041
:106F500000000000000222200000EEEEEEEEEEEE59
:106F6000EEEEEEEE0222222222222EEEEEE88EEE4F
:106F7000EE8E828E222200002220E8000000000017
:106F80000000000000000000000000000000000001
:106F900000000000000000000000000000000000F1
:106FA00000000000000222222222EEEEEEEEEEEEC3
:106FB000EEEEEEEE0222222222220E88E888888857
:106FC000888888EE222000022220EE0000000000C7
:106FD00000000000000000000000000000000000B1
:106FE00000000000000000000000000000000000A1
:106FF00000000000000222222222EEEEEEEEEEEE73
:10700000EEEEEEEE0000222202222EE8888888882A
:107010008888888E022000000000EE00000000003A
:107020000000000000000000000000000000000060
:107030000000000000000000000000000000000050
:10704000000000000002222202222EEEEE88888E2E
:10705000EEEEEEEE0000000222222EE888888888FC
:107060008888888E020000000000EE00000000000A
:107070000000000000000000000000000000000010
:107080000000000000000000000000000000000000
:1070900000000000000000000000000000000000F0
:1070A00000000000000000000000000000000000E0
:107B900000000000000000000000000000200000C5
:107BA00000000000000000000000000000000000D5
:107BB00000000000000000000000000000000000C5
:107BC00000000000000000000000000000000000B5
:107BD00000000000000000000000000000000000A5
:107BE0000000000000000000000000EEEEEEEE20BD
:107BF0000000000000000000000000000000000085
:107C00000000000000000000000000000000000074
:107C10000000000000000000000000000000000064
:107C20000000000000000000000000000000000054
:107C300000000000000000000000EEEEEEEEEEEEB0
:107C4000E000000000000000000000000000000054
:107C50000000000000000000000000000000000024
:107C60000000000000000000000000000000000014
:107C70000000000000000000000000000000000004
:107C80000000000000000000000EEEEEEEEEEEEE52
:107C9000EEE0000000000000000000000000000016
:107CA00000000000000000000000000000000000D4
:107CB00000000000000000000000000000000000C4
:107CC00000000000000000000000000000000000B4
:107CD0000000000000000000002EEEEEEEEEEEEEE2
:107CE000EEEE0000000000000000000000000000B8
:107CF0000000000000000000000000000000000084
:107D00000000000000000000000000000000000073
:107D10000000000000000000000000000000000063
:107D20000000000000000000002EEEEEEEEEEEEE91
:107D3000EEEEE00000000000000000000000000087
:107D40000000000000000000000000000000000033
:107D50000000000000000000000000000000000023
:107D60000000000000000000000000000000000013
:107D70000000000000000000002EEEEEEEEEEEEE41
:107D8000EEEEE00000000000000000000000000037
:107D900000000000000000000000000000000000E3
:107DA00000000000000000000000000000000000D3
:107DB00000000000000000000000000000000000C3
:107DC000000000000000000202EEEEEEEEEEEEEE2D
:107DD000EEEEEE00000000000000000000000000D9
:107DE0000000000000000000000000000000000093
:107DF0000000000000000000000000000000000083
:107E00000000000000000000000000000000000072
:107E100000000000000000002EE00EE2EEEEEEEEAC
:107E2000EEEEEE0000000000000000000000000088
:107E30000000000000000000000000000000000042
:107E40000000000000000000000000000000000032
:107E50000000000000000000000000000000000022
:107E6000000000000000000000000000000EEEEE28
:107E7000EEEEEE2000000000000000000000000018
:107E800000000000000000000000000000000000F2
:107E900000000000000000000000000000000000E2
:107EA0000000000000000000000000000000EEEEF6
:107EB000EEEEEEEEEEEEE0002EEE0EEE0000EEEE5A
:107EC000EEEEEEE000000000000000000000000008
:107ED00000000000000000000000000000000000A2
:107EE0000000000000000000000000000000000092
:107EF0000000000000000000000000000EEEEE0296
:107F0000E0EE00EE2EEEEEEEEEEE0EEEE0000EEE09
:107F1000EEEEEE2000000000000000000000000077
:107F20000000000000000000000000000000000051
:107F30000000000000000000000000000000000041
:107F40000000000000000000000000000EEEEE0047
:107F500000EE0EEEEEEEEEEEEEEE0E00000000EEA7
:107F6000EEEEEE2000000000000000000000000027
:107F70000000000000000000000000000000000001
:107F800000000000000000000000000000000000F1
:107F900000000000000000000000000000EEEEEE17
:107FA000EE0EEEEEEEEEEEEEEEEEEEE00000000097
:107FB0002000EEE0000000000000000000000000D3
:107FC00000000000000000000000000000000000B1
:107FD00000000000000000000000000000000000A1
:107FE00000000000000000000EEEEEE000EEEEEEFD
:107FF000EEE2EEEEEEEEEEEEEEEE0EEE20020EE035
:10800000000000E000000000000000000000000090
:108010000000000000000000000000000000000060
:108020000000000000000000000000000000000050
:108030000000000000000000EEEEEEEEE0EEEEEEDE
:10804000EE00EEEEEEEEEEEEEEEE2EEEEEEE0EE0EC
:1080500000220000000000000000000000000000FE
:108060000000000000000000000000000000000010
:108070000000000000000000000000000000000000
:108080000000000000000000EEEEEEEEEEEEEEEE80
:10809000EE020EEEEEEEEEEEEEEEE02EEEE0EEE0B6
:1080A0000002E220000000000000000000000000CC
:1080B00000000000000000000000000000000000C0
:1080C00000000000000000000000000000000000B0
:1080D000000000000000000EEEEEEEEEEEEEEEEE22
:1080E000EE220EEEEEEEEEEEEEEEEE2000EEEEE026
:1080F000000022200000000000000000000000003E
:10810000000000000000000000000000000000006F
:10811000000000000000000000000000000000005F
:10812000000000000000000EEEEEEEEEEEEEEEEED1
:10813000EE0222EEEEEEEEEEEEEEEEEE0EE2EEEE03
:10814000E2200E20000000000000000000000000FF
:10815000000000000000000000000000000000001F
:10816000000000000000000000000000000000000F
:108170000000000000000EEEEEEEEEEEEEEEE00E81
:10818000EEE22222EEEEEEEEEEEEEEE0EEE0EEEECF
:10819000EE02EE0000000000000000000000000001
:1081A00000000000000000000000000000000000CF
:1081B00000000000000000000000000000000000BF
:1081C00000000000000EEEEEE22EEEEEEEEEEE000F
:1081D00020E0EE22EEEEEEEEEEEE2202EEE22200E5
:1081E0000EEEEE00000000000000000000000000A5
:1081F000000000000000000000000000000000007F
:10820000000000000000000000000000000000006E
:1082100000000000000EEEEEEE200EEEEEEEEEE0C0
:108220000220EE20EEEEEEEEEEEE002EEE2000004E
:10823000000220000000000000000000000000001C
:10824000000000000000000000000000000000002E
:10825000000000000000000000000000000000001E
:1082600000000000000EEEEEEEE00022EEEEEEEE7C
:108270000220EE00EEEEEEEEEEEE00022EEE22E03A
:108280002EE22000000000000000000000000000BE
:1082900000000000000000000000000000000000DE
:1082A00000000000000000000000000000000000CE
:1082B00000000000000EEEEEEEEE20222EEEEEE0CC
:1082C000EEEEEE22EEEEEEEEEEEE2200EE02EEE04E
:1082D0000EEE200000000000000000000000000082
:1082E000000000000000000000000000000000008E
:1082F000000000000000000000000000000000007E
:1083000000000000000EEEEEEEEEEE02202EEE007B
:10831000EEEEEE22EE22EEEEEEE28EEEEEEE002E2F
:10832000028E0000000000000000000000000000BD
:10833000000000000000000000000000000000003D
:10834000000000000000000000000000000000002D
:1083500000000000000EEEEEEEEEEEE22EEEE0EE9D
:10836000EEEEEEE000220EE0EEE8EEEEEEEEE000E5
:1083700002E2000000000000000000000000000019
:1083800000000000000000000000000000000000ED
:1083900000000000000000000000000000000000DD
:1083A00000000000000EEEEEEEEEEEEE2EEEEEE041
:1083B0000EEEEEE000EE0EEEEE2EEEEEE2EEEE0053
:1083C0000EE20000000000000000000000000000BD
:1083D000000000000000000000000000000000009D
:1083E000000000000000000000000000000000008D
:1083F00000000000000EEE0EEEEEEEEEEEEEEEEE03
:10840000EEEE2E00400EEEEEEE2EEEEEE222EEEE60
:10841000EEE000000000000000000000000000008E
:10842000000000000000000000000000000000004C
:10843000000000000000000000000000000000003C
:1084400000000000000EEEE0EEEEEEEEEEEEEEEEE0
:10845000EEEEEEE0000EEEEEEE0EEEEEEEEE2EEEB8
:10846000E22000000000000000000000000000000A
:1084700000000000000000000000000000000000FC
:1084800000000000000000000000000000000000EC
:1084900000000000000EEEEE0EEEEEEEEEEEEEEE62
:1084A000EEEEEEE20000EEEEEE022EEEEEEEEEEE80
:1084B0002E0000000000000000000000000000008E
:1084C00000000000000000000000000000000000AC
:1084D000000000000000000000000000000000009C
:1084E00000000000000EEEEEE02EEEEEEEEEE28872
:1084F00088888882000288888E020EEEEEEEEEEE0C
:108500002E0000000000000000000000000000003D
:10851000000000000000000000000000000000005B
:10852000000000000000000000000000000000004B
:1085300000000000000EEEEEE200EEEEEEEEEE8841
:10854000888888882288888888020022EEEEEEE0FB
:1085500020000000000000000000000000000000FB
:10856000000000000000000000000000000000000B
:1085700000000000000000000000000000000000FB
:1085800000000000000EEEEEEE0002EEEEEEEEE277
:10859000888888888888888888E2200000EEEE0233
:1085A00020000000000000000000000000000000AB
:1085B00000000000000000000000000000000000BB
:1085C00000000000000000000000000000000000AB
:1085D00000000000000EEEEEE222002EE2EEEEE2DF
:1085E000888888888888888888E220000000000EB3
:1085F000000000000000000000000000000000007B
:10860000000000000000000000000000000000006A
:10861000000000000000000000000000000000005A
:108620000000000000022EEEE2220002EEEEEEEE6E
:1086300088888888888888888EE020022222E22222
:10864000000000000000000000000000000000002A
:10865000000000000000000000000000000000001A
:10866000000000000000000000000000000000000A
:108670000000000000000222222000000EEEEEE2C8
:108680008888888888888888000220002EEE22E06A
:1086900000000000000000000000000000000000DA
:1086A00000000000000000000000000000000000CA
:1086B00000000000000000000000000000000000BA
:1086C00000000000000E00022200220000EEEE2258
:1086D00088888888888888880222200000222E00C6
:1086E0000002200000000000000000000000000068
:1086F000000000000000000000000000000000007A
:108700000000000000000000000000000000000069
:10871000000000000002E220020222002000028885
:108720008888888888888880222220000002EE00BD
:108730000002220000000000000000000000000015
:108740000000000000000000000000000000000029
:108750000000000000000000000000000000000019
:10876000000000000000EEEE000020020020028861
:108770008888888888888802220020000002E0001B
:1087800000022000000000000000000000000000C7
:1087900000000000000000000000000000000000D9
:1087A00000000000000000000000000000000000C9
:1087B000000000000000E88E2000000200220008F7
:1087C000888888888888202222222200002E200083
:1087D0000020000000000000000000000000000079
:1087E0000000000000000000000000000000000089
:1087F0000000000000000000000000000000000079
:1088000000000000000E888E2000220022002002BE
:1088100008888888888002202222220002EE000038
:108820000200000000000000000000000000000046
:108830000000000000000000000000000000000038
:108840000000000000000000000000000000000028
:1088500000000000000E888E20000220000222226C
:108860002228E88EE0222022002222000EE00000D2
:1088700020000000000000000000000000000000D8
:1088800000000000000000000000000000000000E8
:1088900000000000000000000000000000000000D8
:1088A00000000000000E8882200222000222222204
:1088B000222EEEEE202222222002220000000002C0
:1088C0000220000000000000000000000000000086
:1088D0000000000000000000000000000000000098
:1088E0000000000000000000000000000000000088
:1088F00000000000000E88E2002200002222022276
:108900002222EE0202222222220022000000002265
:1089100002222222200000000000000000000000CF
:108920000000000000000000000000000000000047
:108930000000000000000000000000000000000037
:1089400000000000000E8EE2000000202222002223
:108950002222EEEE0222222022200200000022200B
:10896000022022222222000000000000000000005D
:1089700000000000000000000000000000000000F7
:1089800000000000000000000000000000000000E7
:1089900000000000000222202000002222220022EB
:1089A0002222EEEE022222222222220000022200B5
:1089B00022220222222222000000000000000000E9
:1089C00000000000000000000000000000000000A7
:1089D0000000000000000000000000000000000097
:1089E00000000000000202220000000222220222F7
:1089F0002222EEEEE0022222222222000022220285
:108A00002222222222222220000000000000000058
:108A10000000000000000000000000000000000056
:108A20000000000000000000000000000000000046
:108A300000000000000202200000000022200222AC
:108A400022EEEEEEEE22222222222200002200223C
:108A50002222222202222222000000000000000026
:108A60000000000000000000000000000000000006
:108A700000000000000000000000000000000000F6
:108A800000000000000200000000002022000200A0
:108A9000EEEEEEEEEEEEEEE20222220002222222C4
:108AA00022222202202222222000000000000000B8
:108AB00000000000000000000000000000000000B6
:108AC00000000000000000000000000000000000A6
:108AD00000000000000000000000002222002EEE36
:108AE000EEEEEEEEEEEEEE222222222002222222F4
:108AF0002222222220222222200000000000000048
:108B00000000000000000000000000000000000065
:108B10000000000000000000000000000000000055
:108B20000000000000000000000002222000EEEE25
:108B30000EEE0200200002222222222022222222E5
:108B400022222222202222222000000000000000F7
:108B50000000000000000000000000000000000015
:108B60000000000000000000000000000000000005
:108B7000000000000000000000000222200022008F
:108B8000000022222222222222222220E22222224B
:108B900022222222200222222200000000000000C5
:108BA00000000000000000000000000000000000C5
:108BB00000000000000000000000000000000000B5
:108BC00000000000000000000000222220022222FB
:108BD00000022222222222222222222000222222DB
:108BE0002222222222022222220000000000000073
:108BF0000000000000000000000000000000000075
:108C00000000000000000000000000000000000064
:108C100000000000000000020002222200022222C6
:108C20002222222222222222222222202222222226
:108C30002222222222222222220000000000000002
:108C40000000000000000000000000000000000024
:108C50000000000000000000000000000000000014
:108C60000000000000000020002222220002222238
:108C700022222222222222222222222200222222F6
:108C80002222222222222222222000000000000092
:108C900000000000000000000000000000000000D4
:108CA00000000000000000000000000000000000C4
:108CB0000000000000000000022222220002222206
:108CC00022222222200222222222222220022222C8
:108CD0002222222222222222222000000000000042
:108CE0000000000000000000000000000000000084
:108CF0000000000000000000000000000000000074
:108D00000000000000000000222222200022222277
:108D10002222222222022222222222222222222253
:108D200022222222222222222220000000000000F1
:108D30000000000000000000000000000000000033
:108D40000000000000000000000000000000000023
:108D50000000000000000002222222000022222245
:108D600022222222202222222222222222222222E5
:108D700022222222222222222220000000000000A1
:108D800000000000000000000000000000000000E3
:108D900000000000000000000000000000000000D3
:108DA00000000000000000222022000000222222F9
:108DB0002222222222222222222222222222222293
:108DC0002222222022222222220000000000000073
:108DD0000000000000000000000000000000000093
:108DE0000000000000000000000000000000000083
:108DF000000000000000022200000000000022220B
:108E00002222222222222222222222222222222242
:108E10002222222222222220222000000000000002
:108E20000000000000000000000000000000000042
:108E30000000000000000000000000000000000032
:108E40000000000000000020000000000000000200
:108E500022222222222222222222222222222222F2
:108E600022222222222222222220000000000000B0
:108E700000000000000000000000000000000000F2
:108E800000000000000000000000000000000000E2
:108E900000000000000000000000000000000000D2
:108EA00000002222222222222222222222222222E6
:108EB000222222222222222222220000000000005E
:108EC00000000000000000000000000000000000A2
:108ED0000000000000000000000000000000000092
:108EE000000000000000000000000000022022221C
:108EF00020000002202222222222222222222222BA
:108F0000222222222222222222220000000000000D
:108F10000000000000000000000000000000000051
:108F20000000000000000000000000000000000041
:108F300000000000000000000000000002202222CB
:108F40002222220000000222222222222222222287
:108F500022222222222222222222000000000000BD
:108F60000000000000000000000000000000000001
:108F700000000000000000000000000000000000F1
:108F80000000000000000000000000000222222279
:108F900022222222222222220220222222222222D3
:108FA000222222222222222222222000000000004D
:108FB00000000000000000000000000000000000B1
:108FC00000000000000000000000000000000000A1
:108FD000000000000000000000000000002022222D
:108FE0002222222222222222222222222222222261
:108FF00022222222222222222222200000000000FD
:109000000000000000000000000000000000000060
:109010000000000000000000000000000000000050
:10902000000000000002020000000000000000221A
:109030002222222222222222222222222222222210
:1090400022222200222222200222220000000000EE
:109050000000000000000000000000000000000010
:109060000000000000000000000000000000000000
:10907000000000000000222002000000000000228A
:1090800022222222222222222222222220222222C2
:1090900022222222200000222222220000000000A0
:1090A00000000000000000000000000000000000C0
:1090B00000000000000000000000000000000000B0
:1090C000000000000000220022000000000000005C
:1090D0002222222222222222222222222220222272
:1090E000222222222222220222222200000000002A
:1090F0000000000000000000000000000000000070
:10910000000000000000000000000000000000005F
:1091100000000000000220002220000000000000EB
:109120000022222222222222222222220220222263
:1091300022222222222222222222220000000000B9
:10914000000000000000000000000000000000001F
:10915000000000000000000000000000000000000F
:1091600000000000000200022220000000000000B9
:109170000002222222222222222222220220222233
:109180002222222222222222222222000000000069
:1091900000000000000000000000000000000000CF
:1091A00000000000000000000000000000000000BF
:1091B000000000000002000220202000000000004B
:1091C0000000022222222222222222220200222225
:1091D0002222222222222222222222000000000019
:1091E000000000000000000000000000000000007F
:1091F000000000000000000000000000000000006F
:109200000000000000020022222222222200000090
:1092100000000000222222222222222022002222DA
:1092200022222222222222022222220000000000E8
:10923000000000000000000000000000000000002E
:10924000000000000000000000000000000000001E
:1092500000000000000002222222222222222220DC
:10926000000000000000000222222222200222220E
:109270002222222222222202222222000000000098
:1092800000000000000000000000000000000000DE
:1092900000000000000000000000000000000000CE
:1092A0000000000000000222202222222220202290
:1092B000222222222220000000002222200220005E
:1092C0000000002222222202220EEE0000000000F6
:1092D000000000000000000000000000000000008E
:1092E000000000000000000000000000000000007E
:1092F000000000000000222202222222220000029E
:1093000020222222222222222200002000202EEED1
:10931000EEEEEE2222222202000EEE0000000000FD
:10932000000000000000000000000000000000003D
:10933000000000000000000000000000000000002D
:109340000000000000002220222222222200000031
:1093500000022222222222222222222EEEEEEEEEF3
:10936000EEEEEE2E20022000000EEE0000000000C7
:1093700000000000000000000000000000000000ED
:1093800000000000000000000000000000000000DD
:1093900000000000000222202222222220000000E1
:1093A0000222EE22222222222222EEEEEEEEEEEE29
:1093B000EEEEEEEE222220000222EE00000000007F
:1093C000000000000000000000000000000000009D
:1093D000000000000000000000000000000000008D
:1093E0000000000000022202022220022EEEEEEE19
:1093F000EEEEEEEEE22222222222EEE2EEEEEEEEA1
